:020000040800F2
:1000000038350120F1020008C9150008CB15000899
:10001000CF150008D3150008D71500080000000010
:10002000000000000000000000000000290200089D
:10003000DB150008000000007D020008013A0008FE
:100040000B0300080B0300080B0300080B03000858
:100050000B0300080B0300080B0300080B03000848
:100060000B0300080B0300080B0300080B03000838
:100070000B0300080B0300080B0300080B03000828
:100080000B0300080B0300080B0300080B03000818
:100090000B0300080B0300080B0300080B03000808
:1000A0000B0300080B0300080B0300080B030008F8
:1000B0000B0300080B0300080B0300080B030008E8
:1000C0000B0300080B0300080B0300080B030008D8
:1000D0000B0300080B0300080B0300080B030008C8
:1000E0000B0300080B0300080B0300080B030008B8
:1000F0000B0300080B0300080B0300080B030008A8
:100100000B0300080B0300080B0300080B03000897
:100110000B0300080B0300080B0300080B03000887
:100120000B0300080B0300080B0300080B03000877
:100130000B0300080B0300080B0300080B03000867
:100140000B0300080B0300080B0300080B03000857
:100150000B0300080B0300080B0300080B03000847
:100160000B0300080B0300080B0300080B03000837
:100170000B0300080B0300080B0300080B03000827
:100180000B0300080B03000800F002F800F03CF835
:100190000AA090E8000C82448344AAF10107DA45E2
:1001A00001D100F031F8AFF2090EBAE80F0013F0F8
:1001B000010F18BFFB1A43F001031847645C0000ED
:1001C000845C0000103A24BF78C878C1FAD852077E
:1001D00024BF30C830C144BF04680C6070470000C1
:1001E0000023002400250026103A28BF78C1FBD840
:1001F000520728BF30C148BF0B6070471FB505F0DC
:10020000E4FD1FBD10B510BD05F0C3F91146FFF7A1
:10021000F5FF00F081FD05F0E1F903B4FFF7F2FF0F
:1002200003BC05F0E9F90000294B19680868B0E83B
:10023000F04F80F30988BFF36F8F4FF0000080F319
:10024000118870470000000006480068006880F3CD
:10025000088862B661B6BFF34F8FBFF36F8F00DFC0
:1002600000BF00BF08ED00E0DFF80C00016841F4BA
:1002700070010160704700BF88ED00E0EFF3098076
:10028000BFF36F8F124B1A681EF0100F08BF20EDDE
:10029000108A20E9F04F106008B44FF0500080F34E
:1002A000118802F0FEFB4FF0000080F3118808BCBB
:1002B00019680868B0E8F04F1EF0100F08BFB0ECE6
:1002C000108A80F30988BFF36F8F704700BF00BFAB
:1002D00074000020EFF311804FF0500181F311887A
:1002E000704780F311887047EFF305807047000076
:1002F0000948804709480047FEE7FEE7FEE7FEE7BA
:10030000FEE7FEE7FEE7FEE7FEE7FEE704480549F5
:10031000054A064B704700000D04000889010008DB
:10032000382F0120383501203831012038310120A3
:100330000CB50020019000907648006840F48030B1
:100340007449086000BF7348006800F400300090F2
:100350000198401C0190009818B90198B0F5A04F81
:10036000F1D16C48006800F4003010B10120009019
:1003700001E0002000900098012846D165484030F7
:10038000006840F08050634940310860624800686E
:1003900040F44040604908605E48083000685D49AC
:1003A000083108600846006840F4004008600846CC
:1003B000006840F4A05008605848091F0860081FF2
:1003C000006840F08070091F086000BF5148006855
:1003D00000F000700028F9D040F205705049086024
:1003E0004C480830006820F003004A490831086092
:1003F0000846006840F00200086000BF4548083029
:10040000006800F00C000828F8D10CBD10B5454874
:10041000006840F47000434908603E48006840F0BE
:1004200001003C49086000203A4908310860394819
:1004300000683D490840374908603C48091D08608C
:10044000081F006820F48020091F0860002031493F
:100450000C310860FFF76CFF4FF0006031498039C4
:10046000086010BD70B50020002202230024022184
:10047000284D08352D6805F00C0020B1042806D061
:10048000082834D107E02A4D2A4E356033E02A4D42
:10049000284E35602FE01F4D2D1D2D68C5F380546B
:1004A0001C4D2D1D2D6805F03F0154B1224DB5FBAB
:1004B000F1F5184E361D3668C6F3881605FB06F2B0
:1004C00009E01B4DB5FBF1F5124E361D3668C6F33B
:1004D000881605FB06F20F4D2D1D2D68C5F301454D
:1004E0006D1C6B00B2FBF3F5124E356003E0104D4E
:1004F000104E356000BF00BF064D08352D68C5F3AE
:1005000003150E4E705D0B4D2D68C540094E3560CC
:1005100070BD0000003802400070004008544007E1
:10052000003C024088ED00E0FFFFF6FE10300024A2
:100530000024F4000000002000127A0004000020D3
:10054000002280F84020002107E09FEDFB0A00EB2D
:10055000810282ED000A4A1CD1B20829F5DB9FED29
:10056000F70A80ED080A9FEDF60A80ED090A9FED73
:10057000F50A80ED0A0A9FEDF40A80ED0B0A9FED63
:10058000F20A80ED0C0A9FEDEF0A80ED0D0A9FED57
:10059000EC0A80ED0E0A9FEDE90A80ED0F0A704724
:1005A000F0EE400A9FEDE41AB0EE410A90F84010D8
:1005B00000EB8103C3ED000A002214E000F12003E8
:1005C00003EB8203D3ED001A8B1803F0070300EB53
:1005D000830393ED002AB0EE401A01EE821AB0EECA
:1005E000410A531C9AB2082AE8DB4B1C99B201F06D
:1005F000070180F84010704710B52DED048B0221E3
:10060000D24804F046FC00285AD0D148008881B274
:10061000CE4804F007FCCF48006800F00100E0B3CA
:100620009FEDCD0B53EC102BCD4890ED000B51EC12
:10063000100B05F01BF8CA4A03C29FEDCA0B53EC1E
:10064000102BC74890ED000B51EC100B05F02CFA65
:100650000CD29FEDC60B53EC102BC14890ED000B54
:1006600051EC100B05F056FABD4A03C2BC4890EDA0
:10067000000B51EC100B04F0C7FF08EE100AB0EEAF
:10068000480ABC48FFF78CFFBB4880ED000A0068B1
:1006900005F02AFB41EC190B00E00CE09FEDB70BD5
:1006A00053EC102B05F002F941EC180B05F092F811
:1006B00000B2A7490880A7480068401CA549086007
:1006C000BDEC048B10BD00BF00235A1E1946AD4877
:1006D000006801F0D6FB0028F6D006E0FFF78CFF9B
:1006E000A9480068401CA8490860A7480068A749B5
:1006F0008842F3D300F072FF01F0AFF80121934874
:1007000004F01BFB9B48FFF71BFF00209E4908607D
:10071000DAE700BF002000F0C5FE0028FAD0002371
:100720009B48194602689B48006801F09FFC002026
:1007300099490870C82002F001F9EBE70021002078
:1007400008E0964A02EB0012927A0AB9012105E00C
:10075000421CD0B2924A12789042F2DB00BF61B9DB
:10076000002006E000228D4B03EB00139A72421C1E
:10077000D0B28B4A12789042F4DB704707464FF0B4
:10078000000800263D4600BFFFF7D8FF85480078E7
:1007900000283ED08448007868B3687A002835D1B4
:1007A000E87938BB8148006820BB00235A1E1946EF
:1007B0007F48006801F065FBE0B100240CE0774859
:1007C00000EB04108079754901EB061189798842A4
:1007D00000DD2646601CC4B2714800788442EEDB1E
:1007E00000206E4901EB0611087001206B4901EBF6
:1007F000061188720AE0687A40B9E87930B96B4826
:10080000006818B9002028700120A87200206549EE
:1008100008702878F8B965480068401C634908608A
:10082000E879401CE871287A00F0D9FD4FF4FA709D
:1008300002F084F8287A00F0DAFD4FF4FA7002F042
:100840007DF8E879A988884202D10320287086E1E2
:100850000220287083E1287801280ED100BF0023F0
:100860005A1E1946E86801F00CFB0028F7D0012059
:10087000A8720020287000BF71E12878022858D1A2
:100880004C480078012855DD4FF00008002424E092
:10089000424800EB0410807844490968B1FBF0F24B
:1008A00000FB1210B8B93D4800EB0410C07990B1BC
:1008B0003A4800EB0410007803280CD0012028707F
:1008C0008046364901EB041100231A46C8681946D0
:1008D00001F0CCF905E0601CC4B2314800788442D4
:1008E000D6DB00BFB8F1000F00D04DE7E87969789A
:1008F00090FBF1F201FB1200D0B900245EE02D481C
:100900000078022807D1254800EB04100078012860
:1009100052D1264656E0214800EB04100078012809
:100920004AD11E4800EB0410807A20B9264649E0DF
:1009300075E07CE076E03FE0000000000AD7233C51
:10094000CDCC4C3D8FC2F53D0AD7A33E003C0040C4
:100950001C00002018000020B81E85EB51B88E3F07
:1009600020000020000000000000F03F0000000018
:1009700000000040F00000202800002000000000DF
:1009800000407F40440000203800002040420F001B
:100990004C000020400000202E00002034010020E8
:1009A0003300002031000020300000203C000020F7
:1009B0004800002034000020601CC4B2FE480078CB
:1009C00084429CDB00BF002419E0FC4800EB0410CB
:1009D0000078012811D1F94800EB0410807A60B941
:1009E000F64800EB04108079F44901EB061189798F
:1009F000884202DBA64200D02646601CC4B2EE4804
:100A000000788442E1DB01202870EC4901EB0611FB
:100A100000231A46C868194601F028F99FE0002013
:100A200028709CE00120A8720020287097E02878A8
:100A300003287DD14FF0000800231A461946E048EC
:100A4000006801F013F9DF48007801287CDD0024FC
:100A500023E0DA4800EB04108078DB490968B1FB39
:100A6000F0F200FB1210B0B9D44800EB0410C079CA
:100A700088B1D24800EB0410007803280BD04FF067
:100A80000108CE4901EB041100231A46C868194633
:100A900001F0ECF805E0601CC4B2C748007884425D
:100AA000D7DB00BFB8F1000F00D06DE600241AE0DC
:100AB000C4480078022807D1C04800EB0410007831
:100AC00001280ED1264612E0BC4800EB0410007845
:100AD000012806D1B94800EB0410807A08B92646EF
:100AE00005E0601CC4B2B44800788442E0DB00BF7B
:100AF000002419E0B14800EB04100078012811D15E
:100B0000AE4800EB0410807A60B9AC4800EB0410EA
:100B10008079AA4901EB06118979884202DBA64255
:100B200000D02646601CC4B2A3480078844201E08D
:100B300015E009E0DEDBA14901EB061100231A46AE
:100B4000C868194601F092F89E480078401E9D49F9
:100B50000870697A9D4A52F8210001F00DFD13E6F4
:100B600070B504460D46164675B1012D02D0022D12
:100B70001ED113E0032060700520A0701420A08017
:100B80000320A07125721EE0042060700A20A0706E
:100B90001E20A0800120A071257214E00620607044
:100BA0000F20A0702820A0800220A07125720AE0EA
:100BB000042060700A20A0702820A0800220A0716C
:100BC0000320207200BF00BF03220021012000F09B
:100BD00091FFE060E06828B100231A461946E068FA
:100BE00001F044F800231A461946E06801F049F97B
:100BF0006672012020700020A072E07170BD10B5F7
:100C0000012000F0F4FB022000F0F1FB002000F0D6
:100C1000EEFB032000F0EBFB10BD10B5012000F04F
:100C2000DEFB032000F0DBFB022000F0D8FB0020FD
:100C300000F0D5FB10BD1FB500BF6548007828B196
:100C4000FFF7EBFF002060490860F6E761480021EC
:100C500002686148006801F063FA0028EDD04FF4A3
:100C6000FA7001F06BFEFFF7CAFF01205B490870C4
:100C700000BF5A480078002842D000205849087028
:100C80002DE04E49564A127801EB021054490A7879
:100C90000978FFF765FF48480078401C464908700E
:100CA00048480078401C47490870002147484C4B91
:100CB0001B7800EB8300CDE9001002913F480391BF
:100CC0004749097800EB0113802246A1AFF2535047
:100CD00001F0ADFB42480078401C41490870404893
:100CE00000780428CDDB00203C49087001203F49F2
:100CF000087000231A4619463D48006800F0B6FF08
:100D0000304800780028B4D1344800780028B0D1A9
:100D1000012032490870ACE71FB54FF4407002F073
:100D200049FF012000F03CFB002000F039FB0320CC
:100D300000F036FB022000F033FB0021084600F0F3
:100D40006BFB0121042003F07DFD00F047FC00F067
:100D500084FD0121274803F0F0FF2748FFF7F0FB4F
:100D600003220021012000F0C5FE1B49086008464F
:100D7000006830B100231A4619461748006800F091
:100D800075FF00231A4619461348006801F079F8E8
:100D900003220021012000F0ADFE09490860084649
:100DA000006830B100231A4619460548006800F073
:100DB0005DFF00231A4621E03300002034010020AB
:100DC00044000020340000203C000020740100207A
:100DD0002E0000204C000020400000202F000020AA
:100DE0002C00002076465053000000003100002007
:100DF00048000020003C0040F00000201946FA485E
:100E0000006801F03EF803220021012000F072FE8C
:100E1000F64908600846006830B100231A461946B2
:100E2000F248006800F022FF00231A461946EF48F6
:100E3000006801F026F8EE480068002829D0EA484A
:100E4000006830B3E948006818B3002000900190B2
:100E5000029003468022E7A10390AFF2252001F023
:100E6000E6FA002000900190029003468022E2A161
:100E70000390AFF2617001F0DAFA00200090019067
:100E8000029003468022DEA10390AFF2C57001F00C
:100E9000CEFA01F080FF002004B010BD0020DA4936
:100EA00008700BE00320D949D74A127801EB0211F0
:100EB0000870D5480078401CD3490870D2480078A3
:100EC0000328EFDB70470146002200BF00BF00BFD0
:100ED00088785043CE4B1B78C01AC0B27047014689
:100EE000002200BF8888CB79C31A88785043C01A83
:100EF00000D402E0501CC2B2F4E700BF0879CB79FD
:100F0000C31A88785043C01AC0B2704707460026FB
:100F10003C4600BFBF480078002836D0BE48007865
:100F200038B3607A20BBE07910BBB9480068F8B9E3
:100F300000235A1E1946AD48006800F0A2FFB8B160
:100F400000250CE0B14800EB05108078AF4901EBBB
:100F500006118978884200DA2E46681CC5B2AF486F
:100F600000788542EEDB0020A84901EB06110870ED
:100F700008E0607A30B9E07920B9A548006808B97E
:100F8000002020700020A34908702078F8B9A048FC
:100F90000068401C9E490860E079401CE071207A9E
:100FA00000F01DFA4FF4FA7001F0C8FC207A00F04E
:100FB0001EFA4FF4FA7001F0C1FCE079A188884272
:100FC00002D103202070A5E702202070A2E720783C
:100FD00001280CD100BF00235A1E1946E06800F01A
:100FE00050FF0028F7D00020207000BF92E7207843
:100FF00002284AD18A480078012843DDE0796178E7
:1010000090FBF1F201FB1200C0BB002509E07F4814
:1010100000EB05100078012801D12E4605E0681C80
:10102000C5B27E4800788542F1DB00BF002515E09F
:10103000764800EB0510007801280DD1734901EBCB
:101040000510FFF740FF8046704901EB0610FFF7DF
:101050003AFF804500DA2E46681CC5B26F4800781A
:101060008542E5DB01202070684901EB0611002371
:101070001A46C868194600F0F9FD4BE7FFE7002063
:10108000207047E70020207044E7207803289AD199
:1010900000231A4619465448006800F0E7FD6048EE
:1010A0000078012835DD002509E0584800EB0510DF
:1010B0000078012801D12E4605E0681CC5B25748CA
:1010C00000788542F1DB00BF002515E04F4800EBBA
:1010D0000510007801280DD14C4901EB0510FFF7F0
:1010E000F2FE8046494901EB0610FFF7ECFE804511
:1010F00000DA2E46681CC5B2484800788542E5DB18
:10110000424901EB061100231A46C868194600F04F
:10111000ADFD43480078401E41490870617A414A5C
:1011200052F8210001F028FAF4E6074600263C4672
:1011300000BF38480078002836D03748007838B3E8
:10114000607A20BBE07910BB31480068F8B9002311
:101150005A1E19462548006800F093FEB8B10025D4
:101160000CE02A4800EB05108078284901EB0611B5
:101170008978884200DA2E46681CC5B22748007874
:101180008542EEDB0020214901EB0611087008E0E2
:10119000607A30B9E07920B91D48006808B90020AC
:1011A000207000201B4908702078E0B918480068BA
:1011B000401C17490860E079401CE071207A00F07B
:1011C0000EF94FF4FA7001F0B9FB207A00F00FF934
:1011D0004FF4FA7001F0B2FBE079A188884223D184
:1011E00003202070A5E722E04400002048000020F2
:1011F000400000204C454400425554544F4E0000DE
:10120000534F554E440000002C00002034010020B4
:101210003C0000203100002030000020330000207E
:1012200034000020740100200220207081E7207823
:1012300001280CD100BF00235A1E1946E06800F0B7
:1012400020FE0028F7D00020207000BF71E7207832
:1012500002284AD14D480078012843DDE0796178C1
:1012600090FBF1F201FB1200C0BB002509E04848E9
:1012700000EB05100078012801D12E4605E0681C1E
:10128000C5B2444800788542F1DB00BF002515E077
:101290003F4800EB0510007801280DD13C4901EBD7
:1012A0000510FFF71CFE8046394901EB0610FFF7D9
:1012B00016FE804500DA2E46681CC5B23548007817
:1012C0008542E5DB01202070314901EB0611002346
:1012D0001A46C868194600F0C9FC2AE7FFE7002053
:1012E000207026E70020207023E7207803289DD176
:1012F00000231A4619462848006800F0B7FC234826
:101300000078012835DD002509E0214800EB0510B3
:101310000078012801D12E4605E0681CC5B21D48A1
:1013200000788542F1DB00BF002515E0184800EB8E
:101330000510007801280DD1154901EB0510FFF7C4
:10134000CEFD8046124901EB0610FFF7C8FD80452F
:1013500000DA2E46681CC5B20E4800788542E5DBEF
:101360000B4901EB061100231A46C868194600F024
:101370007DFC06480078401E04490870617A074ADF
:1013800052F8210001F0F8F8D3E600003400002004
:1013900034010020330000204400002074010020AC
:1013A0001CB50446724951F82400012103F04AFAA1
:1013B000704830F81400009001208DF804000020DF
:1013C0008DF8060001208DF8070002208DF8050039
:1013D000694951F82400694602F06AFD1CBD65495F
:1013E00031F81010644A52F8202011837047614987
:1013F00031F81010604A52F82020518370475E493E
:1014000051F8201049695B4A32F8102051405A4A7D
:1014100052F820205161704730B585B004460D4622
:10142000564951F82400012103F00CFA01218803E8
:1014300003F062FA00208DF810008DF81300504878
:1014400030F8140003904F4951F8240003A902F02A
:101450002FFD012D24D14C4A115D4C4A105D03F043
:101460006AFD4B4830F81400019000208DF8080008
:1014700008208DF8090001208DF80A0001A802F06B
:1014800017FC4448005D8DF800000F208DF8010026
:101490008DF8020001208DF80300684602F08FFBF2
:1014A00005B030BD10B50446354A32F81410354A3F
:1014B00052F8240002F05EFD10BD7CB504460D46D6
:1014C000354951F82410354A52F8242041EA0200E7
:1014D000012103F0B7F92CB9314951F82400012159
:1014E00003F0F9F92F4B13F814202F4B33F8141095
:1014F0002E4B53F8240002F066FD2D4B13F81420F8
:101500002C4B33F814102C4B53F8240002F05BFDE5
:1015100000208DF8060001208DF8070002208DF8CC
:101520000400264830F81400009002208DF80500D1
:101530001E4951F82400694602F0BAFC02208DF8D9
:1015400004001F4830F8140000901B4951F8240093
:10155000694602F0ADFC1B4951F82400294603F00E
:101560008AFD184951F82400012103F00CFE7CBDCE
:10157000E85D0008E05D000850000020FC5D000808
:10158000F85D000860000020035E0008025E0008AD
:10159000005E0008045E00080C5E0008105E000893
:1015A000085E00081C5E0008185E00086C00002041
:1015B0001E5E00081A5E000870000020145E00081D
:1015C000165E000868000020704700BFFEE700BFFD
:1015D000FEE700BFFEE700BFFEE770471CB56846A8
:1015E00002F0AEFC1020009001208DF804000220D3
:1015F0008DF8070000208DF8060002208DF8050008
:1016000001210B2003F01EF96946EA4802F050FC64
:1016100002208DF8040001208DF806004FF41070B0
:10162000009000208DF8070002208DF80500694623
:10163000E14802F03DFC04220621DF4802F0C3FC31
:1016400004220921DC4802F0BEFC01214FF4021003
:1016500003F041F9012002F0C6FF00208DF80600DA
:101660004FF4A45000906946D44802F021FC1020A9
:1016700000906946D24802F01BFC06220421D048A3
:1016800002F0A1FC06220721CC4802F09CFC0622B5
:101690000A21CA4802F097FC06220C21C74802F032
:1016A00092FC1021C34802F081FCC64803F00AFAFC
:1016B0004BF68030C44988604FF40070C880002029
:1016C00088804FF400700880002048808881BD48E1
:1016D00003F062FABD4802F0AFFCBD48BD490860A6
:1016E00000208880332008814FF480604881000109
:1016F00088814BF6FF70C8800121B44802F041FD9B
:10170000B449B24802F0C1FC1CBD70B505460E4696
:10171000002400BF4FF40031AC4802F06FFE0028F7
:10172000F8D10121A94802F04FFD00BFAA49A748FE
:1017300002F064FE0028F9D000229421A34802F0B0
:101740005BFD00BFA549A14802F036FE0028F9D094
:101750000DE0295D9D4802F0D3FD601CC4B200BFBE
:101760009E49891E994802F027FE0028F8D0B4420D
:10177000EFDB00BF9849C91C944802F03FFE0028E7
:10178000F8D00121914802F02BFD70BD70B50446E0
:10179000002500BF4FF400318C4802F02FFE0028D6
:1017A000F8D10121894802F00FFD00BF8A4987481E
:1017B00002F024FE0028F9D000229421834802F090
:1017C0001BFD00BF8549814802F0F6FD0028F9D0D5
:1017D00021467E4802F094FD00BF8049891E7B4867
:1017E00002F0EAFD0028F8D00121784802F0F8FC68
:1017F00000BF4FF40031754802F000FE0028F8D118
:101800000021724802F000FD0121704802F0DCFC6A
:1018100000BF71496D4802F0F1FD0028F9D00122A6
:1018200094216A4802F0E8FC00BF6D49674802F065
:10183000C3FD0028F9D000BF69493E31634802F07A
:10184000BBFD0028F8D0614802F05CFD054601218F
:101850005E4802F0C5FC284670BD7CB5FF2410210F
:10186000544802F0A1FB5F4D00E06D1E002DFCD13D
:101870000D208DF8000001208DF80100022168463E
:10188000FFF743FF00208DF8000099208DF801003C
:1018900002216846FFF739FF47208DF800008020BD
:1018A0008DF8010002216846FFF72FFF3220FFF775
:1018B0006DFF044632208DF8000044F080008DF862
:1018C000010002216846FFF720FF3220FFF75EFF8C
:1018D000044632208DF8000024F080008DF80100CD
:1018E00002216846FFF711FF00208DF800008DF8F7
:1018F000010002216846FFF708FF04208DF8000070
:10190000AF208DF8010002216846FFF7FEFE0D2092
:101910008DF8000070208DF8010002216846FFF765
:10192000F4FE05208DF8000081208DF801000221D1
:101930006846FFF7EAFE06208DF8000007208DF8C4
:10194000010002216846FFF7E0FE0A208DF8000042
:1019500000208DF8010002216846FFF7D6FE2720FF
:101960008DF8000000208DF8010002216846FFF785
:10197000CCFE9A208DF800000A208DF801008DF829
:10198000020003216846FFF7C0FE1F208DF800000B
:101990000F208DF8010002216846FFF7B6FE0220F5
:1019A0008DF800009E208DF8010002216846FFF7A7
:1019B000ACFE7CBD000C0240000402400008024066
:1019C00000000240003C0040840100200054004020
:1019D000A086010094010020010000108200070091
:1019E0000200030040420F0000F1080141604FF087
:1019F000FF31816000F10801C160016100210160D7
:101A0000704700210161704742684A6093688B60AB
:101A1000936859609160086103685B1C03607047BC
:101A200010B502460B685C1C0CB9106907E002F1A6
:101A3000080000E04068446824689C42FAD9446881
:101A40004C604C68A160886041600A611468641C45
:101A5000146010BD01460A69D1E901309860D1E9EE
:101A6000010358605068884201D1886850600020A6
:101A700008611068401E10601068704770B5054618
:101A80000E462C461CB9FEF725FC00BFFEE701F010
:101A900084FFD4E90F12206801FB0200606000207F
:101AA000A0632068A060E06B401E226C216800FBF0
:101AB0000210E0604FF0FF306064A06476B92069E6
:101AC00008B9012000E0002080B904F1100001F005
:101AD00007FB01280AD101F056FF07E004F11000CE
:101AE000FFF782FF04F12400FFF77EFF01F074FF8F
:101AF000012070BD2DE9F04705460E4617464FF010
:101B00000009DDB1542001F0D6FF0446B4B105FB55
:101B100006F000F10108404601F0CDFF206020688A
:101B200048B1E563266401212046FFF7A7FF84F84A
:101B30005070A14602E0204602F00FF8B9F1000F04
:101B400003D1FEF7C7FB00BFFEE74846BDE8F087BC
:101B500010B5044601F021FF11E0606A08B90120C8
:101B600000E0002038B904F1240001F0B9FA18B1FE
:101B700001F072FB00E005E0A06C401EA064A06CC8
:101B80000028EADC00BF4FF0FF30A06401F024FF22
:101B900001F003FF11E0206908B9012000E00020F6
:101BA00050B904F1100001F09BFA08B101F054FBA8
:101BB000606C401E606400E002E0606C0028EADCBB
:101BC00000BF4FF0FF30606401F006FF10BD70B53C
:101BD000054601F0E2FEA86BE96B884201D10124C1
:101BE00000E0002401F0F8FE204670BD2DE9F04130
:101BF00004460E4615460027206C40B9206878BB85
:101C0000606801F099FB07460020606028E07DB91C
:101C10003146226CA06803F0F1FB216CA0680844F7
:101C2000A060D4E9011088421AD32068A06017E0B0
:101C30003146226CE06803F0E1FB216CE068401A59
:101C4000E0602168E068884203D2216C6068401A35
:101C5000E060022D04D1A06B10B1A06B401EA06308
:101C6000A06B401CA0633846BDE8F0812DE9FF431E
:101C700083B0064688461D464FF0000934461CB91D
:101C8000FEF728FB00BFFEE7B8F1000F01D1206C82
:101C900008B9012000E0002018B9FEF71BFB00BFC7
:101CA000FEE7022D02D1E06B012801D1012000E006
:101CB000002018B9FEF70EFB00BFFEE701F0DEFAC8
:101CC00008B9059808B9012000E0002018B9FEF70E
:101CD00001FB00BFFEE700BF01F05FFEA06BE16B00
:101CE000884201D3022D1DD12A4641462046FFF7E6
:101CF0007DFF0746606A08B9012000E0002040B976
:101D000004F1240001F0ECF9012805D101F03BFEBB
:101D100002E00FB101F037FE01F05EFE012007B0D6
:101D2000BDE8F083059818B901F056FE0020F6E7EB
:101D3000B9F1000F04D101A801F04AFA4FF00109EE
:101D400001F04AFE00F09CFD01F027FE606C401C93
:101D500008B900206064A06C401C08B90020A06491
:101D600001F03AFE05A901A801F040FAC0B92046E9
:101D7000FFF72DFF70B104F11000059901F0F7F89D
:101D80002046FFF7E5FE00F0CFFC0028A4D101F0CB
:101D9000FAFDA1E72046FFF7DBFE00F0C5FC9BE75C
:101DA0002046FFF7D5FE00F0BFFC0020B7E770B576
:101DB0000546542001F07FFE0446E4B10020606037
:101DC0002060A060E060A0630120E0630020206448
:101DD000401E6064A06484F8505004F11000FFF7C6
:101DE00003FE04F12400FFF7FFFD00231A46194605
:101DF0002046FFF73BFF1CB9FEF76CFA00BFFEE779
:101E0000204670BD70B5064634461CB9FEF762FA2E
:101E100000BFFEE701F02FFA616888420CD1E0684C
:101E2000401EE060E06828B900231A4619462046A3
:101E3000FFF71CFF012500E00025284670BD70B5A6
:101E4000054601F0AAFDA86B08B9012400E00024B2
:101E500001F0C2FD204670BD70B504460D46206CF1
:101E600070B1216CE0680844E0606168E068884215
:101E700001D32068E0602846226CE16803F0BEFAD6
:101E800070BD2DE9FF4383B005460E461F464FF057
:101E900000092C461CB9FEF71DFA00BFFEE70EB97B
:101EA000206C08B9012000E0002018B9FEF712FAF2
:101EB00000BFFEE701F0E2F908B9059808B9012072
:101EC00000E0002018B9FEF705FA00BFFEE700BFEA
:101ED00001F063FDA06B90B3D4F80C80314620462E
:101EE000FFF7BAFFB7B9A06B401EA063206810B916
:101EF00001F072FA6060206908B9012000E000205A
:101F0000B8B904F1100001F0EBF8012811D101F08B
:101F10003AFD0EE0C4F80C80606A08B9012000E0C8
:101F2000002030B904F1240001F0DAF808B101F022
:101F30002AFD01F051FD012007B0BDE8F083FFE765
:101F4000059818B901F048FD0020F5E7B9F1000F38
:101F500004D101A801F03CF94FF0010901F03CFD6A
:101F600000F08EFC01F019FD606C401C08B90020E7
:101F70006064A06C401C08B90020A06401F02CFD36
:101F800005A901A801F032F908BB2046FFF757FF69
:101F9000B8B1206830B901F000FD606801F07AF94D
:101FA00001F01AFD04F12400059900F0E0FF20463D
:101FB000FFF7CEFD00F0B8FB002889D101F0E3FC6B
:101FC00086E72046FFF7C4FD00F0AEFB80E7204621
:101FD000FFF7BEFD00F0A8FB0020ADE72DE9F041C2
:101FE00006460F4634461CB9FEF774F900BFFEE7FB
:101FF00001F041F96168884204D1E068401CE0606A
:1020000001250BE000233A4619462046FFF739FF29
:102010000546012D02D1E068401CE0602846BDE87D
:10202000F08170B505460E460DB1012000E000209C
:1020300018B9FEF74FF900BFFEE7AE4201D8012004
:1020400000E0002018B9FEF745F900BFFEE70222C4
:1020500000212846FFF74EFD044604B1A6631CB9D3
:10206000FEF738F900BFFEE7204670BD2DE9F047C6
:102070000746894615461E463C461CB9FEF72AF916
:1020800000BFFEE7B9F1000F01D1206C08B90120B3
:1020900000E0002018B9FEF71DF900BFFEE7022E90
:1020A00002D1E06B012801D1012000E0002018B925
:1020B000FEF710F900BFFEE701F0B1FCFEF70AF9E8
:1020C0008246A06BE16B884201D3022E20D13246BA
:1020D00049462046FFF78AFD10B10DB10120286066
:1020E000A06C401C70B9606A08B9012000E00020B3
:1020F00058B904F1240000F0F3FF30B12DB10120F4
:10210000286002E0A06C401CA0644FF0010801E0D0
:102110004FF000085046FEF7E4F84046BDE8F0876F
:102120002DE9F0470546884616462C461CB9FEF7B1
:10213000D1F800BFFEE7B8F1000F01D1206C08B95B
:10214000012000E0002018B9FEF7C4F800BFFEE748
:1021500001F065FCFEF7BEF88146A06BE8B1414690
:102160002046FFF779FEA06B401EA063606C401C08
:1021700070B9206908B9012000E0002058B904F1C5
:10218000100000F0ADFF30B12EB10120306002E050
:10219000606C401C6064012700E000274846FEF7A1
:1021A000A0F83846BDE8F0872DE9F04705460F4610
:1021B0002C461CB9FEF78EF800BFFEE70FB9206C65
:1021C00008B9012000E0002018B9FEF783F800BF2D
:1021D000FEE701F024FCFEF77DF88146A06B48B1D4
:1021E000D4F80C8039462046FFF736FEC4F80C8040
:1021F000012600E000264846FEF773F83046BDE8A9
:10220000F08770B504461CB9FEF764F800BFFEE71E
:1022100001F0C3FBA56B01F0DFFB284670BD70B574
:10222000044625461DB9FEF755F800BFFEE701F04C
:10223000B4FBD5E90E10461A01F0CEFB304670BD56
:1022400070B504461CB9FEF745F800BFFEE7A56B64
:10225000284670BD014600200BE03D4A02EBC0025B
:1022600052688A4204D10022394B43F8302002E000
:10227000401C0828F1D300BF704770B505462C46B6
:102280001CB9FEF727F800BFFEE72046FFF7E2FF84
:10229000206810B1206801F060FC204601F05DFC70
:1022A00070BD0146C86C7047C1647047014691F823
:1022B0005000704770B505461DB9FEF70BF800BF1A
:1022C000FEE7A86B08B9012400E00024204670BD99
:1022D00070B504461CB9FDF7FDFF00BFFEE7A06B1B
:1022E000E16B884201D1012500E00025284670BD40
:1022F000024600200BE0164B53F8303033B9144B34
:1023000043F8301003EBC0035A6002E0401C082879
:10231000F1D300BF704770B505460E462C4601F05C
:102320003CFB606C401C08B900206064A06C401C41
:1023300008B90020A06401F04FFBA06B20B9314622
:1023400004F1240000F0A6FE2046FFF701FC70BD5A
:10235000A401002010B5002407E004EB8401F74A33
:1023600002EB8100FFF740FB641C052CF5D3F44819
:10237000FFF73AFBF348FFF737FBF348FFF734FB6F
:10238000F248FFF731FBF248FFF72EFBEC48F1492A
:102390000860EC48F049086010BD2DE9F04704469C
:1023A0000F4615469946DDF82080002607E0B95D06
:1023B00004F134008155B85D00B902E0761C0A2EA4
:1023C000F5D300BF00213D200155052D00D3042584
:1023D000E562A5640020E064201DFFF712FB04F114
:1023E0001800FFF70EFB2461C5F10500A0616462CF
:1023F000BDE8F08770B505460E46502001F05BFB46
:10240000044694B11EB9A80001F055FB00E0304627
:102410002063206B20B9204601F09FFB002404E0DC
:10242000A900A522206B03F02EF8204670BD2DE9EF
:10243000FF4F81B0804616469A46DDE90E5BB8F143
:10244000000F03D1FDF746FF00BFFEE7052D01D2C7
:10245000012000E0002018B9FDF73CFF00BFFEE7B7
:1024600030461099FFF7C6FF0446002C5DD0701E61
:10247000216B01EB800929F0070909F0070008B971
:10248000012000E0002018B9FDF724FF00BFFEE79F
:1024900000962A462046119B0299FFF77EFF52467E
:1024A0004146484601F0F4F92060BBF1000F01D02D
:1024B000CBF8004001F071FAA8480068401CA74919
:1024C0000860A748006840B9A5480460084600684D
:1024D00001280CD1FFF73EFF09E0A248006830B99F
:1024E0009F480068C06AA84201D89D4804609E4881
:1024F0000068401C9C49086008460068206494F805
:102500002C100120884099490968084397490860C0
:10251000E16A01EB8101894A02EB8100211DFFF78D
:1025200073FA012701F058FA01E04FF0FF37012F4D
:1025300009D18C48006830B189480068C06AA84257
:1025400001D201F020FA384605B0BDE8F08F81498C
:102550000968096809B9012100E0002121B14FF0A3
:10256000FF31834A116006E07A490968C968C86882
:102570007F4A41681160704770B5054601F00DFA59
:1025800015B97748006800E028460446201DFFF78B
:1025900061FA78B9E06A00EB8000684951F82000E0
:1025A00040B994F82C100120884070490968814393
:1025B0006E480160A06A18B104F11800FFF74AFAEA
:1025C000211D6248FFF720FA6A480068401C6949EB
:1025D000086065480068401C6349086001F0FCF928
:1025E00060480068B8B15E48006884420DD1624816
:1025F000006808B9012000E0002018B9FDF76AFE64
:1026000000BFFEE701F0BFF905E001F0C6F9FFF7F2
:102610009EFF01F0E1F970BD2DE9F0414FF0000897
:1026200055480068002872D154480068401C53493E
:10263000086008460668DEB946480068006808B9C0
:10264000012000E0002018B9FDF744FE00BFFEE7BE
:1026500040480768404800683E4908603E480760B7
:1026600047480068401C46490860FFF770FF00BFFC
:102670003F48006886423CD300BF36480068006887
:1026800008B9012000E0002020B14FF0FF303849A8
:1026900008602DE02F480068C068C4686568AE42D5
:1026A00002D23348056023E0201DFFF7D3F9A06A6A
:1026B00018B104F11800FFF7CDF994F82C1001209F
:1026C00088402A490968084328490860E16A01EB03
:1026D00081011A4A02EB8100211DFFF795F920497B
:1026E000E06A0968C96A8842C7D34FF00108C4E7A5
:1026F00000BF1B480068C06A00EB80000F4951F81A
:102700002000012808D94FF0010805E0FFE71D4827
:102710000068401C1B4908601B48006808B14FF066
:1027200001084046BDE8F08170B5002512480068F8
:1027300018B9FDF7CFFD00BFFEE727E0E401002058
:10274000480200205C020020700200208402002069
:1027500098020020780000207C00002084000020E7
:102760007400002090000020A00000208C000020B9
:10277000A400002080000020A80000208800002085
:102780009C000020940000209800002001F005F932
:10279000F9480068401EF8490860084600680028AB
:1027A0004BD1F6480068002847D024E0F448C068C0
:1027B000C46804F11800FFF74DF9201DFFF74AF92E
:1027C00094F82C1001208840EE4909680843ED492F
:1027D0000860E16A01EB8101EB4A02EB8100211DF7
:1027E000FFF712F9E949E06A0968C96A884202D329
:1027F0000120E7490860E248006808B9012000E0CC
:1028000000200028D2D0E348006878B10AE0FFF742
:1028100003FF10B10120DE490860DE480068401E59
:10282000DC490860DB4800680028F0D1D84800681F
:10283000012802D1012501F0A6F801F0CDF82846C3
:1028400070BD10B50446D14800684460D2480068A5
:10285000844207D2CD480168091DD0480068FFF7BF
:10286000DFF80CE0C9480168091DCD480068FFF792
:10287000D7F8CC480068844201D2CA48046010BD31
:10288000BD480068401CBC49086070472DE9F0470E
:1028900004460E464FF000091CB9FDF71BFD00BFB2
:1028A000FEE70EB1012000E0002018B9FDF712FD8F
:1028B00000BFFEE7B048006808B9012000E0002032
:1028C00018B9FDF707FD00BFFEE7FFF7D9FFB248D3
:1028D000D0F80080206885192068404507D9206815
:1028E000A8420BD9454509D94FF0010906E02068F7
:1028F000A84201D8454501D94FF001092560B9F139
:10290000000F13D0A1480068001DFFF7A3F850B9CD
:102910009E48006890F82C10012088409949096869
:102920008143984801602846FFF78BFFFFF7FCFEC4
:1029300007460FB901F027F8BDE8F08770B50446E7
:10294000002634B38C48006808B9012000E000205C
:1029500018B9FDF7BFFC00BFFEE7FFF791FF8E48F7
:102960000068051989480068001DFFF773F850B921
:102970008648006890F82C10012088408149096839
:102980008143804801602846FFF75BFFFFF7CCFEDC
:1029900006460EB900F0F7FF70BD70B5044600F0B2
:1029A000FCFF14B97948006800E020460646F56A45
:1029B00001F012F8284670BD2DE9F04780460D461B
:1029C0004FF00009052D01D2012000E0002018B9C8
:1029D000FDF780FC00BFFEE7052D00D3042500F0C5
:1029E000DCFFB8F1000F02D16848006800E0404603
:1029F0000446A66CAE4250D0B5420BD9634800687D
:102A000084420DD061480068C06AA84208D84FF0DF
:102A1000010905E05D480068844201D14FF00109D9
:102A2000E76AE16AA06C884200D1E562A564A0690A
:102A300000F0004010B9C5F10500A06107EB870167
:102A4000514A02EB81016069884201D1012000E016
:102A50000020E0B1201DFEF7FDFF30B90120B84095
:102A60004849096881434748016094F82C100120C7
:102A7000884044490968084342490860E16A01EB1B
:102A80008101414A02EB8100211DFEF7BDFFB9F132
:102A9000010F01D100F077FF00BF00F09DFFBDE8FE
:102AA000F08710B53448006818B101203849086033
:102AB0002BE000203649086032480068B0FA80F008
:102AC000C0F11F0404EB84002F4951F8200008B125
:102AD000012000E0002018B9FDF7FCFB00BFFEE775
:102AE00004EB8401284A02EB810041684968416097
:102AF00000F1080142688A4202D141684968416098
:102B00004168C968214A116000BF10BD70B5054613
:102B100000F043FF15B91D48006800E02846044650
:102B2000201DFEF797FF78B9E06A00EB8000164998
:102B300051F8200040B994F82C1001208840114928
:102B4000096881430F480160A06A18B104F11800B8
:102B5000FEF780FF211D1448FEF756FF00F03CFFF2
:102B60000A480068844239D11048006848B30248D6
:102B70000068E8B901201CE0A800002084000020C3
:102B8000700200208C000020E4010020740000206E
:102B90009800002094000020880000207C00002085
:102BA00078000020A400002098020020900000205F
:102BB000002018B9FDF78EFB00BFFEE700F0E3FE32
:102BC00015E0FE480068FE490968884203D10020EC
:102BD000FC4908600BE0FFF764FF08E0FA48006872
:102BE00028B100F0DAFEFFF7B2FC00F0F5FE70BD90
:102BF00070B5054600262C461DB9FDF76BFB00BFDE
:102C0000FEE7EE496069884201D1012000E0002022
:102C100070B1EE49A06A884201D1012000E0002095
:102C200030B9A06A08B9012000E0002000B10126F7
:102C3000304670BD70B505462C461DB9FDF74AFB00
:102C400000BFFEE74CB3DF480068844225D000F0A7
:102C5000A4FE2046FFF7CCFF01281CD1201DFEF763
:102C6000F9FE94F82C1001208840D94909680843DE
:102C7000D7490860E16A01EB8101D64A02EB810085
:102C8000211DFEF7C1FECF49E06A0968C96A884282
:102C900001D300F078FE00F09FFE70BD2DE9F041F9
:102CA000054600262C461DB9FDF714FB00BFFEE7C4
:102CB00000F0B5FEFDF70EFB07462046FFF798FF34
:102CC000012824D1C4480068E0B9BE49E06A096817
:102CD000C96A884200D30126201DFEF7BBFE94F886
:102CE0002C1001208840BA4909680843B849086097
:102CF000E16A01EB8101B74A02EB8100211DFEF779
:102D000083FE04E004F11801B048FEF77DFE38466A
:102D1000FDF7E7FA3046BDE8F08110B50446206BB8
:102D200000F01BFF204600F018FF10BD70B523E037
:102D3000FFF7A6FDA948006808B9012000E00020BF
:102D40000546FFF7F1FCBDB900F027FEA348C068B7
:102D5000C468201DFEF77EFE99480068401E984911
:102D600008609F480068401E9D49086000F034FEDE
:102D70002046FFF7D2FF00BF994800680028D7D14E
:102D800070BD00BFFFF7D2FF924800680128F9D953
:102D900000F0F9FDF6E71FB50020009001900290C9
:102DA000034682228FA103909048FFF740FB044620
:102DB000012C02D100F0E7FC0446012C0AD1FDF7FA
:102DC00089FA01208049086000208949086000F0E4
:102DD0007DFD04E01CB9FDF77DFA00BFFEE71FBDD5
:102DE00010B5FDF777FA00207749086000F0BCFDC8
:102DF00010BD10B500F0D1FD7D48046800F0ECFD79
:102E0000204610BD70B500F00AFEFDF763FA0546D6
:102E1000774804682846FDF764FA204670BD684884
:102E2000006870470246002101E0521C491C1078DE
:102E3000A528FAD0890888B270472DE9F0470646E0
:102E40000C4690460025206800284BD0204641685B
:102E50004968416000F1080142688A4202D1416834
:102E6000496841604168D1F80C9000BF2046416834
:102E70004968416000F1080142688A4202D1416814
:102E8000496841604168CF6806EB4510076007F16B
:102E9000340006EB45114860386C06EB451188603C
:102EA00006EB451080F80C80F86A06EB45110861C6
:102EB000B8F1030F05D1B86A18B1022006EB45112D
:102EC0000873B86C06EB45114861002006EB45110C
:102ED0008861386BFFF7A6FF06EB451188836D1CF0
:102EE0004F45C3D12846BDE8F0872DE9F04105469E
:102EF0008846164600240527FFF7C2FC30480068C4
:102F000080452FD300BF7F1E07EB8702314B03EBB9
:102F1000820105EB44100122FFF78FFF0444002FCC
:102F2000F1D105EB4410022232490968FFF785FF11
:102F3000044405EB441002222F490968FFF77DFF86
:102F4000044405EB441004222449FFF776FF0444AF
:102F500005EB441003221949FFF76FFF04440EB13B
:102F600000203060FFF7E0FB2046BDE8F08170B53F
:102F700005460C461DB9FDF7ADF900BFFEE7114847
:102F8000016818312846FEF74BFD0E480068001D09
:102F9000FEF760FD50B90B48006890F82C10012036
:102FA00088400B490968814309480160601C20B9C9
:102FB00004480168091D014820E022E09802002031
:102FC0008400002074000020900000207002002087
:102FD0008C000020E4010020A800002084020020D2
:102FE0008000002049444C4500000000832D00086B
:102FF00088000020780000207C000020FEF704FDFF
:1030000005E0FC48006806193046FFF71AFC70BD61
:103010002DE9F04105460E4614461DB9FDF75AF953
:1030200000BFFEE7F448006808B1012000E000207E
:1030300018B9FDF74FF900BFFEE746F00040EF4931
:1030400009688861ED48016818312846FEF7DCFC04
:10305000EA480068001DFEF7FDFC50B9E74800682B
:1030600090F82C1001208840E54909688143E44824
:103070000160601C30B9E1480168091DE148FEF7B4
:10308000C3FC05E0DB48006807193846FFF7D9FBA9
:10309000BDE8F08170B504460D461CB9FDF71AF97C
:1030A00000BFFEE7D548016818312046FEF7ACFCAA
:1030B000D2480068001DFEF7CDFC50B9CF4800682B
:1030C00090F82C1001208840CD4909688143CC48F4
:1030D0000160C848006846193046FFF7B2FB70BD72
:1030E00070B50646F068C4681CB9FDF7F3F800BF78
:1030F000FEE704F11800FEF7ADFCBF480068A8B970
:10310000201DFEF7A7FC94F82C1001208840BC4934
:1031100009680843BA490860E16A01EB8101BA4ACB
:1031200002EB8100211DFEF76FFC04E004F11801A1
:10313000B648FEF769FCB149E06A0968C96A884285
:1031400004D901250120B249086000E00025284685
:1031500070BD2DE9F04105460F46A748006808B14B
:10316000012000E0002018B9FDF7B4F800BFFEE729
:1031700047F000402860EC681CB9FDF7ABF800BFD1
:10318000FEE72846FEF766FC201DFEF763FC94F878
:103190002C10012088409A49096808439849086022
:1031A000E16A01EB8101984A02EB8100211DFEF7E3
:1031B0002BFC9249E06A0968C96A884204D9012651
:1031C00001209349086000E000263046BDE8F08108
:1031D00010B504461CB9FDF77DF800BFFEE78D4829
:1031E0000068206083480068606010BD2DE9F041F0
:1031F00004460D461CB9FDF76DF800BFFEE71DB98A
:10320000FDF768F800BFFEE700F0C7FB79480768E4
:103210002868401C08B9002619E07E492068096822
:10322000884204D06068B84201D801260FE0606887
:10323000381A2968884209D228686168791A401AC0
:1032400028602046FFF7C4FF002600E0012600F0BA
:10325000C3FB3046BDE8F08101206D49086070472E
:10326000014611B10A46506C00E00020704708B1D9
:1032700002465164704761490868704766490968A9
:1032800009B9012005E05C49096809B9022000E09C
:103290000020704770B505462C46002D4BD057498D
:1032A000E06A0968C96A884245D2A06900F0004016
:1032B00028B952480068C06AC0F10500A061E16AFF
:1032C00001EB8101504A02EB81016069884201D122
:1032D000012000E0002050B3201DFEF7BBFB78B9B1
:1032E000E06A00EB8000484951F8200040B994F8AA
:1032F0002C10012088404249096881434048016000
:103300003E480068C06AE06294F82C1001208840B2
:103310003B49096808433A490860E16A01EB8101C9
:10332000394A02EB8100211DFEF76EFB03E03348B2
:103330000068C06AE06270BD70B505462C46002684
:10334000002D3BD0E06C18B9FCF7C4FF00BFFEE7CE
:10335000E06C401EE064A16CE06A88422ED0E06C14
:1033600060BB201DFEF776FB78B9E06A00EB8000B9
:10337000254951F8200040B994F82C1001208840CC
:103380001F49096881431E480160A06CE062E06A41
:10339000C0F10500A06194F82C1001208840184964
:1033A0000968084316490860E16A01EB8101164A81
:1033B00002EB8100211DFEF727FB0126304670BD80
:1033C0000E49096888690D490968C96AC1F1050192
:1033D0000A4A1268916170470848006830B107498D
:1033E000096801F14C00C96C491C01600348006880
:1033F0007047000088000020A80000207400002012
:103400008C00002098020020E401002070020020BF
:10341000980000209C000020900000202DE9F04141
:1034200004460D4616461F464FF0000865602461AD
:10343000B5420CD8F01BA169884202D34FF00108B5
:1034400011E0211DF9480068FEF7EAFA0BE0BE42E0
:1034500004D2BD4202D34FF0010804E0211DF4481C
:103460000068FEF7DDFA4046BDE8F0812DE9FE4335
:1034700005460C4616461F46DDF828804FF0000929
:10348000EC48006810B3009401960295062C15DAFA
:10349000FFF7F4FE022808D1002342466946E548BA
:1034A0000068FEF7E3FB814610E000231A466946F8
:1034B000E0480068FEF7DAFB814607E000233A4661
:1034C0006946DC480068FEF7D1FD81464846BDE804
:1034D000FE832DE9F8432BE0D5480068C0680568F5
:1034E000D3480068C068C468201DFEF7B3FA2046C0
:1034F000616A8847E06901281AD1A0694619AE427D
:1035000007D966602461211DC9480068FEF788FA62
:103510000EE0002003462A46014600902046FFF7B1
:10352000A5FF07461FB9FCF7D5FE00BFFEE700BFA9
:10353000BF480068006808B9012000E000200028AA
:10354000CAD0BB48D0F80080B8480068B8490860C5
:10355000B648C0F80080BDE8F88370B50446FFF7B0
:1035600048FC0546B4480068854204D2FFF7B1FF25
:103570000120206001E000202060AF48056028465F
:1035800070BD70B586B05DE0039800285ADB059CDD
:10359000606908B9012000E0002010B9201DFEF785
:1035A00059FA02A8FFF7D9FF054603980A2847D21F
:1035B000DFE800F00905072B2D4206082C2E00BF7E
:1035C00000BF00BF00BF0498A269811803462A46C5
:1035D0002046FFF723FF012816D12046616A88475D
:1035E000E069012810D1002000900498A1694218D8
:1035F000002319462046FFF739FF06461EB9FCF79F
:1036000069FE00BFFEE700BF1BE000BF19E000BF7E
:103610000498A061A06908B1012000E0002018B959
:10362000FCF758FE00BFFEE7A06941192B462A4669
:103630002046FFF7F3FE04E0204600F08EFA00E09B
:1036400000BF00BF00231A4603A97A480068FEF7AE
:1036500018FC002898D106B070BDF8B505460F4695
:1036600073480068C068C468201DFEF7F3F9E0697C
:10367000012817D1A06941192B463A462046FFF789
:10368000CDFE01280ED1002003462A4601460090B7
:103690002046FFF7EBFE06461EB9FCF71BFE00BFF7
:1036A000FEE700BF2046616A8847F8BDF8B50446CA
:1036B0000E46FFF7E5F86846FFF74FFF054600980E
:1036C000A0B946B9AC4206D8FFF72EF829462046E5
:1036D000FFF7C3FF0CE0611B56480068FEF71BFEB6
:1036E000FFF722F820B900F04EF901E0FFF71CF8CF
:1036F000F8BD01464E4A126812680AB9012200E07C
:1037000000220A600A6822B9494A1268D268106821
:1037100000E00020704708B500BF6846FFF7E9FFEA
:10372000044620460099FFF7C1FFFFF72AFFF4E7A0
:1037300010B500F032F93F48006808BB3F48FEF77B
:1037400053F93F48FEF750F93C48394908603C4876
:103750003649086000220C210A20FEF7CBF93549D2
:1037600008600846006818B9FCF7B4FD00BFFEE722
:103770003048006820B133A12E480068FEF7B8FD3C
:1037800000F02AF910BD1FB50024FFF7D1FF29482A
:10379000006868B100200223CDE9003002900346A2
:1037A0004FF4827229A103902A48FEF740FE044696
:1037B0001CB9FCF78FFD00BFFEE7204604B010BD2A
:1037C0002DE9F04706460D4617469846DDF820904D
:1037D0000DB9002410E02C2000F06DF904465CB116
:1037E000FFF7A6FF2660A561E761C4F82080C4F852
:1037F0002490201DFEF705F90DB1012000E0002006
:1038000018B9FCF767FD00BFFEE72046BDE8F0876A
:1038100001460A461068704770B50446264600F017
:10382000BCF87069C0B9012017E00000B0000020AA
:10383000AC000020B4000020B8000020AC02002042
:10384000C0020020546D725100000000546D7220BF
:103850005376630017370008002080F0010500F060
:10386000BBF8284670BD01460A46106A7047000042
:103870007F480068401C08B9012000E0002018B90A
:10388000FCF728FD00BFFEE7FCF724FD00BFFEE7C4
:10389000001F4FF080730360001F0160001F754B15
:1038A000036014380260001F6FF0020303602038C9
:1038B0007047714800684FF47A71B0FBF1F0401E18
:1038C0004FF0E02148610720086170471CB56B4844
:1038D000014609780191FF210246117001460978DD
:1038E00000919DF8001001F05001654A1170072108
:1038F000644A116009E063490968491E614A116020
:103900009DF800104906090E00919DF8001001F085
:1039100080018029EFD05B4909680902594A11608A
:103920001146098801F4E0611160544A019911704F
:103930005548006840F47000534908600846006824
:1039400040F070400860FFF7B4FF0020484908606D
:10395000FCF78AFC4D48006840F040404B49086045
:10396000FCF772FC00201CBD10B541480068B0F5A2
:103970007A7F01D1012000E0002018B9FCF7AAFCF1
:1039800000BFFEE710BD4FF080503F491C39086072
:10399000BFF34F8FBFF36F8F704710B5FCF79AFCE2
:1039A00033480068401C32490860BFF34F8FBFF3B3
:1039B0006F8F0846006801280DD133481C38006815
:1039C00000F01F0008B9012000E0002018B9FCF742
:1039D00081FC00BFFEE710BD10B52548006818B98E
:1039E000FCF778FC00BFFEE721480068401E204934
:1039F00008600846006810B90020FCF772FC10BD92
:103A000010B5FCF767FCFEF707FE20B14FF08050C1
:103A10001D491C3908600020FCF763FC10BD70B51F
:103A2000FCF762FC0546102D0FD305F1E02090F85D
:103A3000F04313480078844201DB012000E00020BD
:103A400018B9FCF747FC00BFFEE70F4814380068C0
:103A500000F4E0600B490968884201D8012000E0C9
:103A6000002018B9FCF736FC00BFFEE770BD00006F
:103A7000BC000020713800080000002000E400E0D5
:103A8000C0000020C400002020ED00E034EF00E082
:103A9000424A22F00700424A10600022404B5A601E
:103AA000404A414B5A6000221A6001463D4A4A6032
:103AB0001A460A6070472DE9F04104464FF00008AD
:103AC000FEF7DEFE3948006820B9FFF7E1FF01206C
:103AD0003649086044B1083404F0070020B104F00E
:103AE0000700C0F108000444002C31D02D48844266
:103AF0002ED22B4F3846056801E02F462D686868A6
:103B0000A04202D228680028F7D1274885421FD05A
:103B1000386800F10808286838606868001B1028B9
:103B200010D92E196868001B70606C6071681C48A1
:103B300000E00068026852688A42FAD30268326084
:103B4000066000BF1A4968680968081A18490860C1
:103B5000FEF7EAFD4046BDE8F08170B50646354601
:103B6000B6B1083D2C46FEF78BFE61680C4800E0BC
:103B70000068026852688A42FAD3026822600460D0
:103B80000B4960680968084409490860FEF7CCFDE4
:103B900070BD07480068704770470000DC020020D5
:103BA000C8000020F82B0100D0000020DC0000201D
:103BB000D800002032490143324A1160704770B585
:103BC000002100230F22C4781CB32E4C246804F477
:103BD000E064C4F5E064C4F30721C1F10404E3B276
:103BE0000A4144789C40E1B28478144021430C0798
:103BF000210E254C05786155047804F01F05012439
:103C0000AC4005786D11AD0005F1E025C5F8004127
:103C100009E0047804F01F050124AC401B4D067830
:103C2000761145F8264070BD194A0A400243154BEB
:103C30001B1F1A60704739B1124A121D12680243E5
:103C4000104B1B1D1A6006E00E4A121D12688243BB
:103C50000C4B1B1D1A607047042808D14FF0E0215F
:103C6000096941F004014FF0E022116107E04FF0D3
:103C7000E021096921F004014FF0E0221161704751
:103C80000000FA050CED00E000E400E080E100E057
:103C900080FFFF1F002041490860091D0860091DC1
:103CA0000860091D08603E483C49143108607047AF
:103CB00000213A498279002A3AD00A4612680368FC
:103CC0009A430B461A600A1D126803689A430B1D3B
:103CD0001A60027911440A6803681A430A602F4A7D
:103CE0000832126803689A432C4B08331A601A1D75
:103CF000126803689A43294B0C331A604279102AE0
:103D00000ED11A1F126803681A43244B08331A6035
:103D10001A1D126803681A43204B0C331A600DE019
:103D20001E49427911440A6803681A430A6005E093
:103D3000027911440A6803689A430A6070470021B7
:103D4000016001710C21417100218171704713499B
:103D5000103109680143114A103211607047014661
:103D600000200E4A143212680A400AB1012000E015
:103D7000002070470949143108607047014600204F
:103D8000064A143212680A400AB1012000E00020FD
:103D9000704702491431086070470000003C014040
:103DA000FFFF7F0010B504469848844208D10121E6
:103DB000084600F0B2FD0021012000F0AEFD76E0E3
:103DC0009348844208D10121022000F0A6FD002181
:103DD000022000F0A2FD6AE08E48844208D1012151
:103DE000042000F09AFD0021042000F096FD5EE022
:103DF0008948844208D10121082000F08EFD00216D
:103E0000082000F08AFD52E08448844208D1012154
:103E1000102000F082FD0021102000F07EFD46E021
:103E20007F48844208D10121202000F076FD002146
:103E3000202000F072FD3AE07A48844208D1012146
:103E4000402000F06AFD0021402000F066FD2EE0D9
:103E50007548844208D10121802000F05EFD0021D8
:103E6000802000F05AFD22E07048844208D10121F0
:103E7000801500F052FD0021A01500F04EFD16E067
:103E80006B48844208D10121401500F046FD002115
:103E9000601500F042FD0AE06648844207D1012126
:103EA000001500F03AFD0021201500F036FD10BD90
:103EB000F0B50A4600210023002400BF3DE00125A3
:103EC00005FA01F3156805EA03049C4234D105683C
:103ED0004F000326BE40B543056015794E00B5403E
:103EE0000668354305601579012D02D01579022D3C
:103EF00016D185684F000326BE40B54385605579CD
:103F00004E00B540866835438560456801268E4081
:103F1000B5434560456896798E40B6B235434560F5
:103F2000C5684F000326BE40B543C560D5794E0035
:103F3000B540C6683543C560491C1029BFD3F0BDE4
:103F40004FF6FF7101600021017141718171C171F2
:103F5000704708B54FF480320092009A0A430092ED
:103F6000009AC261C161009AC261C2690092C269CD
:103F7000009208BD0246002013690B400BB10120DE
:103F800000E0002070470146086980B27047024691
:103F9000002053690B400BB1012000E00020704766
:103FA0000146486980B2704701837047418370477A
:103FB0000AB1018300E04183704741617047426963
:103FC0004A4042617047F0B5002300244D07ED0ED2
:103FD00002FA05F3CE1000F1200555F826504E07E1
:103FE000F70E0F26BE40B543CF1000F1200646F86D
:103FF0002750CE1000F1200555F8265045EA03045D
:10400000CE1000F1200545F82640F0BD000002402A
:104010000004024000080240000C02400010024070
:104020000014024000180240001C02400020024020
:10403000002402400028024010B50446F84884429B
:1040400009D10121480500F09BFC00214FF400102C
:1040500000F096FC18E0F348844209D1012188055C
:1040600000F08EFC00214FF4800000F089FC0BE092
:10407000ED48844208D10121C80500F081FC0021EF
:104080004FF4000000F07CFC10BD2DE9FF47044612
:104090000D460026B1460427DFF89083A6884FF628
:1040A000C0700640684600F0FCFADDF80880E04881
:1040B000B8FBF0F01FFA80F946EA0906A6802088CE
:1040C0004FF6FE71084020800026DA4928688842B1
:1040D0000CD828684000B8FBF0F087B2042F00DA53
:1040E00004273E4309F10100208427E0E8884BF6CD
:1040F000FF71884206D1286800EB4000B8FBF0F061
:1041000087B209E0286800EBC00101EB0010B8FBA2
:10411000F0F087B247F48047C7F30B0008B947F0C7
:10412000010747F4004006434FF4967009FB00F086
:104130004FF47A7190FBF1F0401C2084A683208814
:1041400040F00100208026884FF6F5300640A88810
:104150006989084306432680A88929890843208164
:10416000BDE8FF8741F288310160002181804BF674
:10417000FF71C1800021018141814FF48041818123
:10418000704721B1028842F00102028004E00288F7
:104190004FF6FE731A400280704729B1828C4FF6A9
:1041A000EF731A40828403E0828C42F01002828412
:1041B00070470A460021818C4FF6F073194002F0D7
:1041C0000F0319438184704721B1028842F4807241
:1041D000028004E002884FF6FF631A4002807047B5
:1041E00021B1028842F40072028004E002884FF696
:1041F000FF531A400280704712B141F0010101E003
:1042000001F0FE010182704721B1028842F4806210
:10421000028004E002884FF6FF331A4002807047A4
:104220000A46002181894FF60173194002F0FE030E
:1042300019438181704721B1828942F00102828154
:1042400004E082894FF6FE731A408281704721B1E3
:10425000028842F04002028004E002884FF6BF73F9
:104260001A400280704721B1028842F40042028065
:1042700003E00288C2F30E020280704721B902886F
:1042800042F08002028004E002884FF67F731A40F9
:1042900002807047B1F5804F05D0828B4BF6FF73DB
:1042A0001A40828303E0828B42F48042828370470B
:1042B000B1F5006F04D1028842F40062028004E08C
:1042C00002884FF2FF731A4002807047B1F5005F19
:1042D00004D1028842F40052028004E002884DF6C4
:1042E000FF731A400280704721B1028842F0100229
:1042F000028004E002884FF6EF731A400280704794
:10430000018270470146088AC0B2704721B1028815
:1043100042F48052028004E002884EF6FF731A4095
:1043200002807047B1F5006F04D1028842F4006248
:10433000028004E002884FF2FF731A400280704747
:1043400021B1028842F02002028004E002884FF688
:10435000DF731A40028070470146088B00127047D5
:1043600021B1828842F40062828004E082884FF2A8
:10437000FF731A408280704721B1828842F48052D4
:10438000828004E082884EF6FF731A408280704774
:1043900008B5024600200090009200980844009062
:1043A0000098008808BD1AB183880B43838002E01F
:1043B00083888B438380704770B5024600240025B4
:1043C00000230020958A138B1B0445EA030626F080
:1043D0007F4404EA01068E4201D1012000E0002062
:1043E00070BD10B501460020002300228B8A0A8B85
:1043F000120443EA020424F07F4010BD0CB50246CB
:10440000002000230193009300920B0F019321F0F1
:104410007F41019B83B1009B1433009310E00000A7
:104420000054004000580040005C004000127A0038
:1044300040420F00A0860100090C009B1833009336
:10444000009B1B680B400BB1012000E000200CBD5D
:10445000002221F07F42D3438382704730B5024669
:1044600000200023948801F0E06504EA154321F060
:104470007F41948A0C4014B10BB1012000E0002070
:1044800030BD002221F07F42D34383827047000079
:10449000F948006840F00100F74908600020F6493B
:1044A00008310860F4480068F4490840F24908609F
:1044B000F348091D0860F348EF4984310860F0486B
:1044C0001038091D0860EC48006820F48020EA4993
:1044D00008600020E8490C310860E7498C31086029
:1044E00070470021E44A921C117011460870704711
:1044F00010B501460022002300204A11012A02D1F2
:10450000DD4C236808E0022A03D1DB4C70342368B9
:1045100002E0D94C7434236801F01F020124944056
:104520001C400CB1012000E0002010BD38B5002077
:1045300000900024002500BF3120FFF7D9FF054679
:104540000098401C00900098B0F5A04F01D0002DBD
:10455000F2D03120FFF7CCFF08B1012400E00024A5
:10456000204638BD01460020C34A106820F0F800FC
:1045700040EAC10010607047C349086070470021DD
:10458000BD4A703211701170012802D004280AD17E
:1045900004E00121B84A7032117005E00521B64AE5
:1045A0007032117000E000BF00BF7047B74908606B
:1045B000704770B5049C41EA82150126C6EB53068C
:1045C00045EA0645054345EA0465AB4E361D3560B0
:1045D00070BDAD4908667047820142EA0172A64B80
:1045E00084331A607047A8498866704710B5830104
:1045F00043EA016343EA02739F4C8834236010BD91
:10460000A14908677047A049C86470470246002066
:10461000994B0833186820F0EC6042EA0103184314
:10462000954B08331860704702460020924B0833C0
:10463000186820F0784042EA010318438E4B083393
:1046400018607047014600208B4A0832106820F03D
:10465000030008431060704787480830006800F086
:104660000C00704701460020834A0832106820F091
:10467000F000084310607047014600207E4A08326F
:10468000106820F4E0500843106070470146002095
:10469000794A0832106820F4604040EAC100106096
:1046A0007047F0B5002100220024022500260223D5
:1046B000714F08373F6807F00C0121B1042905D07C
:1046C000082937D105E0724F076036E0714F076067
:1046D00033E0694F3F1D3F68C7F38056664F3F1D6B
:1046E0003F6807F03F036EB16A4FB7FBF3F7DFF89F
:1046F00088C10CF1040CDCF800C0CCF3881C07FB6B
:104700000CF40CE0624FB7FBF3F7DFF86CC10CF16F
:10471000040CDCF800C0CCF3881C07FB0CF4564FEB
:104720003F1D3F68C7F301477F1C7D00B4FBF5F7D1
:10473000076002E0564F076000BF00BF4E4F0837CA
:104740003F6807F0F0010909534F7A5C0768D740CA
:104750004760494F08373F6807F4E051890A4E4FD8
:104760007A5C4768D7408760434F08373F6807F453
:104770006041490B484F7A5C4768D740C760F0BD3D
:10478000002100F44072B2F5407F0AD13A4A083263
:10479000116821F4F811414A02401143364A0832A7
:1047A0001160354A70321268C0F30B031A43324B62
:1047B00070331A607047354944390860704733498F
:1047C000403908607047364908607047014600204C
:1047D000294A8C32106820F01F004A1E1043264AD6
:1047E0008C321060704701460020234A8C321068DA
:1047F00020F4F8504A1E40EA02201F4A8C32106012
:104800007047014600201C4A8C32106820F440108A
:1048100008431060704701460020174A8C32106828
:1048200020F4400008431060704701460020124AFF
:104830008C32106820F440300843106070471949EA
:104840000860704739B10C4A3032126802430A4B93
:1048500030331A6006E0084A303212688243064B51
:1048600030331A607047F9B1034A34321268024398
:10487000014B34331A601CE000380240FFFFF6EAB7
:10488000103000240030002000004742800E4742D4
:104890000024F40000127A00E0000020FFFCFF0F6B
:1048A0005C014742E0114742854A12688243844BCB
:1048B0001A60704739B1824A121D12680243804B58
:1048C0001B1D1A6006E07E4A121D126882437C4B53
:1048D0001B1D1A60704739B1794A0C3212680243C5
:1048E000774B0C331A6006E0754A0C32126882432B
:1048F000734B0C331A60704739B1714A1032126829
:1049000002436F4B10331A6006E06D4A1032126892
:1049100082436B4B10331A60704739B1684A243AAE
:1049200012680243664B243B1A6006E0644A243A4C
:1049300012688243624B243B1A60704739B1604A67
:10494000203A126802435E4B203B1A6006E05C4A44
:10495000203A126882435A4B203B1A60704739B1A3
:10496000574A1C3A12680243554B1C3B1A6006E03A
:10497000534A1C3A12688243514B1C3B1A607047E1
:1049800039B14F4A143A126802434D4B143B1A6036
:1049900006E04B4A143A12688243494B143B1A60B2
:1049A000704739B1464A103A12680243444B103BF3
:1049B0001A6006E0424A103A12688243404B103BAC
:1049C0001A60704739B13E4A1C32126802433C4BB0
:1049D0001C331A6006E03A4A1C3212688243384B94
:1049E0001C331A60704739B1354A203212680243CD
:1049F000334B20331A6006E0314A2032126882437A
:104A00002F4B20331A60704739B12D4A2432126877
:104A100002432B4B24331A6006E0294A24321268E1
:104A20008243274B24331A60704739B1244A2C3211
:104A300012680243224B2C331A6006E0204A2C32C3
:104A4000126882431E4B2C331A60704739B11C4ADE
:104A50003032126802431A4B30331A6006E0184AAB
:104A6000303212688243164B30331A60704739B1C6
:104A7000134A273A12780243114B273B1A7006E07B
:104A80000F4A273A127882430D4B273B1A70704722
:104A90000B484030006840F08070094940310860A0
:104AA000704701460020064A283A12680A400AB1B7
:104AB000012000E000207047014926390870704746
:104AC0003438024010B50446F648844208D101212A
:104AD0008014FFF766FF0021A014FFF762FF3CE09F
:104AE000F148844208D101210014FFF749FF002159
:104AF0002014FFF745FF30E0EC48844208D1012143
:104B0000C013FFF73DFF0021E013FFF739FF24E05A
:104B1000E748844208D101214014FFF742FF0021F9
:104B20006014FFF73EFF18E0E248844209D10121FA
:104B30000805FFF736FF00214FF48010FFF731FF23
:104B40000BE0DD48844208D101214805FFF729FF29
:104B500000214FF40010FFF724FF10BD10B5002214
:104B6000028802F441520B884C8823438C882343EB
:104B7000CC8823430C8923434C8923438C892343CA
:104B8000CC8923431A430280838B4FF2FF74234066
:104B900083830B8A038210BD2DE9F04F0025022389
:104BA0000024012700220026944690469146B0F842
:104BB0001CA04FF2400B0AEA0B0AA0F81CA04FF011
:104BC000020AA0F820A0858BD1F808A0BAF1020F44
:104BD00001D100BF6CE0B1F804A0BAF1000F01D11F
:104BE000012700E00227DFF8D4A2DAF800A00AF4D7
:104BF000000ABAF1000F09D0DFF8C0A2DAF800A06D
:104C00002AF4000ADFF8B4B2CBF800A0DFF8ACA2B7
:104C10000AF17C0ADAF800A0CAF38818DFF89CA22F
:104C20000AF17C0ADAF800A0CAF30279DFF88CA254
:104C3000AAF1040ADAF800A00AF03F0CDFF880A21B
:104C4000BAFBFCFA0AFB08FABAFBF9F6B1F806A0BF
:104C5000BAF5007F0ED14FEA162A0AEB8A0A4FEA0C
:104C60004A0AD1F808B0BAFBFBFA0AF1050A1FFAA2
:104C70008AF20FE04FEA471AB6FBFAFA0AEB8A0A01
:104C80004FEA4A0AD1F808B0BAFBFBFA0AF1050A62
:104C90001FFA8AF24FF00A0AB2FBFAF202F001049C
:104CA000A2EB040ACAF34F034FF6FF7A0AEA042480
:104CB000022B01DBFF2B01DD02230024B1F806A04B
:104CC0004AEA040A4AEA030AA0F820A0B1F804A0BC
:104CD000B1F80CB04AEA0B0AB1F802B04AEA0B0A82
:104CE000B1F800B04AEA0B0A4AF4006A4AEA05053C
:104CF0008583BDE8F08F0021018041808180C180E3
:104D0000018141818181C181072101827047002198
:104D1000018041808180C1800221816000218181E8
:104D2000704721B1028842F04002028004E002880C
:104D30004FF6BF731A400280704721B1828B42F454
:104D40008062828304E0828B4FF6FF331A408283B5
:104D5000704702884FF2FF731A40028002880A43AC
:104D600002807047B1F5804F04D1028842F480423E
:104D7000028004E002884BF6FF731A4002807047FD
:104D80004FF6FF62914204D0028842F480720280A2
:104D900004E002884FF6FF631A400280704721B199
:104DA000828842F00402828004E082884FF6FB731E
:104DB0001A408280704721B1828842F010028280BE
:104DC00004E082884FF6EF731A408280704730B556
:104DD00000220023848B4FF240052C408483022460
:104DE0000484828B0C88B4F5007F01D00C8814B940
:104DF0004FF4807308E00C88B4F5407F03D00C8832
:104E0000B4F5807F00D100238C888D892C434D8898
:104E10002C431C4344F400642243828330BD01468A
:104E2000888970478181704721B1028842F400521D
:104E3000028004E002884DF6FF731A40028070473A
:104E4000018841F480510180704702460020012909
:104E500001D0108B00E0908A70470146088A7047A5
:104E60001AB183880B43838002E083888B4383805D
:104E7000704730B5002400230C110125A540ABB2CA
:104E80001AB185881D43858002E085889D43858011
:104E900030BD0246002013890B400BB1012000E019
:104EA000002070470030014000380040003C0040C6
:104EB00000340140005001400054014008380240D5
:104EC00000127A00CA4302817047F0B50246002002
:104ED00000240023002501F00F070126BE40B4B2D4
:104EE0000B1101269E40B3B2968806EA0305168987
:104EF000264016B10DB1012000E00020F0BD10B534
:104F0000002201F00F040123A3409AB2D34303818E
:104F100010BD000010B501218803FFF742FD0021FC
:104F20004FF48040FFF73DFD10BD1C4908607047FD
:104F30001B490862704730B500228B071C0F0F23F6
:104F400003FA04F2154B08338C1053F824309343C2
:104F5000124C08348D1044F8253023468C1053F839
:104F600024308C07240F00FA04F423430B4C08343C
:104F70008D1044F8253030BD0949DC310860704798
:104F8000084908607047002004492031096801F48D
:104F9000807109B1012000E0002070470038014015
:104FA000000027420004274210B50446FA48844214
:104FB00008D101211020FFF7F4FC00211020FFF799
:104FC000F0FC57E0F548844209D101214804FFF77D
:104FD000D7FC00214FF40030FFF7D2FC4AE0F04844
:104FE000844209D101218804FFF7CAFC00214FF453
:104FF0008020FFF7C5FC3DE0EA48844209D1012149
:10500000C804FFF7BDFC00214FF40020FFF7B8FCF7
:1050100030E0E548844209D101210805FFF7B0FCE2
:1050200000214FF48010FFF7ABFC23E0DF488442FF
:1050300008D101212020FFF7B4FC00212020FFF738
:10504000B0FC17E0DA48844209D101218807FFF754
:1050500097FC00214FF08040FFF792FC0AE0D54812
:10506000844207D101214005FFF78AFC0021600539
:10507000FFF786FC10BD2DE9FF4705460E460024CC
:10508000A14600BFA046B08900B100BF2C8A24F41D
:105090004054F08804432C82AC8941F20C60844374
:1050A000B08831890843718908430443AC81AC8AD4
:1050B00024F44074B0890443AC826846FFF7F1FAE7
:1050C000B548854202D0B948854202D1DDF80C903E
:1050D00001E0DDF80890A88900F4004040B109EB38
:1050E000C90000EB091031684900B0FBF1F707E097
:1050F00009EBC90000EB091031688900B0FBF1F73A
:105100006420B7FBF0F004012009642101FB107852
:10511000A88900F4004040B1322000EBC800B0FB89
:10512000F1F000F00700044308E0322000EB081023
:105130006421B0FBF1F000F00F0004432C81BDE8C6
:10514000FF874FF41651016000218180C1800181E9
:105150000C21418100218181704710B50246002059
:10516000108A20F470600B884C8823438C8823437A
:10517000CC8823431843108210BD00210180418058
:105180008180C180704721B1828942F400528281BE
:1051900004E082894DF6FF731A4082817047028BCA
:1051A00002F47F420283028B0A430283704721B1DB
:1051B000828942F40042828103E08289C2F30E02B6
:1051C0008281704721B1828A42F40062828204E0C7
:1051D000828A4FF2FF731A4082827047C1F308023D
:1051E0008280704701468888C0F308007047028AB1
:1051F0004FF6F0731A400282028A0A430282704715
:1052000021B1828942F00202828104E082894FF654
:10521000FD731A408281704782894FF2FF731A40F2
:10522000828182890A4382817047028A4FF6DF7346
:105230001A400282028A0A430282704721B1028A1E
:1052400042F48042028204E0028A4BF6FF731A4065
:1052500002827047818941F001018181704721B14B
:10526000828A42F00802828204E0828A4FF6F77353
:105270001A4082827047028BD2B20283028B42EACA
:1052800001220283704721B1828A42F02002828289
:1052900004E0828A4FF6DF731A408282704721B1A0
:1052A000828A42F01002828204E0828A4FF6EF7313
:1052B0001A4082827047828A4FF6FB731A408282BC
:1052C000828A0A438282704721B1828A42F00202B6
:1052D000828204E0828A4FF6FD731A408282704710
:1052E0001AB1838A0B43838202E0838A8B438382D1
:1052F0007047F0B50346002400260025002040F644
:105300006A17B94200D100BF1846C1F3421401F038
:105310001F06012707FA06F5012C01D10C3004E025
:10532000022C01D1103000E014301AB107682F436D
:10533000076002E00768AF430760F0BD0246002047
:10534000B1F5007F00D100BF13880B400BB10120E5
:1053500000E00020704701F40072B2F5007F00D138
:1053600000BFCA430280704770B502460024002384
:105370000025002040F66A16B14200D100BFC1F3FB
:10538000421501F01F03012606FA03F3012D13D184
:105390009689334017E000000010014000440040AF
:1053A00000480040004C0040005000400014014004
:1053B00000780040007C0040022D02D1168A334064
:1053C00001E0968A33400C12012606FA04F416888E
:1053D000344013B10CB1012000E0002070BD10B5C5
:1053E0000022002340F66A14A14200D100BF0A1235
:1053F00001249440A3B2DC43048010BD032A40F290
:10540000308010F0030C00F0158011F8013BBCF166
:10541000020F624498BF11F801CB00F8013B38BF7E
:1054200011F8013BA2F1040298BF00F801CB38BF8C
:1054300000F8013B11F0030300F03080083AC0F09F
:10544000088051F8043B083A51F804CBA0E8081052
:10545000F5E7121D5CBF51F8043B40F8043BAFF385
:105460000080D20724BF11F8013B11F801CB48BFDF
:1054700011F8012B24BF00F8013B00F801CB48BF15
:1054800000F8012B704702F0FF0343EA032242EACF
:10549000024200F037B870477047704710B5203AA5
:1054A000C0F00B80B1E81850203AA0E81850B1E8DD
:1054B0001850A0E81850BFF4F5AF5FEA027C24BF93
:1054C000B1E81850A0E8185044BF18C918C0BDE88A
:1054D00010405FEA827C24BF51F8043B40F8043B53
:1054E00008BF7047D20728BF31F8023B48BF11F808
:1054F000012B28BF20F8023B48BF00F8012B704762
:105500004FF000020429C0F0128010F0030C00F0EC
:105510001B80CCF1040CBCF1020F18BF00F8012B6A
:10552000A8BF20F8022BA1EB0C0100F00DB85FEA38
:10553000C17C24BF00F8012B00F8012B48BF00F804
:10554000012B70474FF0000200B513469446964673
:10555000203922BFA0E80C50A0E80C50B1F1200186
:10556000BFF4F7AF090728BFA0E80C5048BF0CC034
:105570005DF804EB890028BF40F8042B08BF704792
:1055800048BF20F8022B11F0804F18BF00F8012B04
:105590007047754600F02CF8AE4605006946534644
:1055A00020F00700854618B020B5FAF7AFFEBDE839
:1055B00020404FF000064FF000074FF000084FF07A
:1055C000000B21F00701AC46ACE8C009ACE8C0090B
:1055D000ACE8C009ACE8C0098D46704710B5044678
:1055E000AFF300802046BDE81040FAF716BE000079
:1055F00000487047D42E012001491820ABBEFEE7B9
:10560000260002007047000021F00042A2F1605223
:10561000B2F5801F01F0004328BFD2F17F6C0BD997
:105620005FEA001C43EAC20242EB507018BF7047A9
:1056300028BF20F001007047B2F5801FBCBF18469C
:1056400070474FEA410C1CF5001F02D2084600F0DB
:10565000C1BB70B500F0D4F900000089FFF7F6BFB8
:105660004FF00040A0F580007047000010B591EAAF
:10567000030F48BF83F0004300F15482841A71EB9A
:10568000030C05D2121943EB0C03001B61EB0C0158
:10569000DFF824E14FEA1154A4EB135C1EEA430F38
:1056A00018BF9EEA445F73D023EA0E03DCF1200E9C
:1056B00021EA045143F4801332D322FA0CFE10EB9A
:1056C0000E0023FA0CFE41EB0E01CCF1200E03FA82
:1056D0000EFE10EB0E0051F10001B1F5801FCCF170
:1056E000200E32D201EB045112FA0EF2BDE8104046
:1056F00058BF7047401C38BF5FEA420218BF70476E
:10570000002814BF20F0010041F100014FEA4103DD
:1057100013F5001F38BF7047A1F1C04100F0BEB9BA
:10572000012A43EB0302ACF1200CDCF11F0E32BF67
:105730004FF0000E23FA0CF310EB030041EB045181
:10574000B4EB115FD0D0A1EB045101F580114908F1
:105750005FEA300001EB04510ED350F1000038BF76
:1057600012FA0EFE08D1BDE81040C9E7401C38BF50
:105770005FEA4202CAD1C3E7BDE810404FEA4103E5
:1057800013F5001F38BF7047A1F1C04100F086B982
:105790009EEA445F08D011EA5E0FBDE8104004BFE6
:1057A00001F0004100207047BDE8104070B500F0E6
:1057B00027F900BF64FBBE3E0000E0FF491058BF60
:1057C000C1F140415B1058BFC3F140438B42EFF33E
:1057D000008070474FEA41034FEA5353A3F58063BB
:1057E000D3F11E03C8BFD3F1210C0CDD4FF00042F2
:1057F00042EAC12242EA505232FA03FC8CEAE17CCE
:10580000ACEBE1707047102BC4BF0020704703F56C
:10581000787CBCF1FF3F04D06FF0004282EA2100A7
:10582000704770B500F0ECF8499224800020704772
:10583000F2E7000051EA030C17D41CF5801F58BF93
:10584000BCF5801F00F10680994218BF704708BF61
:105850009042704707D711F5801F58BF13F5801F7E
:1058600019D499427047894270471CF5801F08D5AA
:10587000BCF5801FF7D58B4218BF704708BF824226
:1058800070474FF4001C1CEB410F38BF1CEB430F5B
:1058900001D28B42704770B500F0B2F892244900F3
:1058A0004FF000514FF08053FFF788BFDFF848C139
:1058B00070B51CEA111E1EBF1CEA13159EEA0C0FE0
:1058C00095EA0C0F00F06F8081EA030423EA4C1381
:1058D0004EEAD47E21EA4C1141F4801143F4801346
:1058E000AE44A1FB024CA0FB0365AEF17F7E3619EE
:1058F00055EB0C05A1FB034C4CF10003A0FB021C73
:1059000016EB0C06654153F10003094218BF46F03F
:10591000010613F4007F0BD14FEA03314FEA053043
:10592000340341EA155140EA16506FF003020AE0D1
:105930004FEAC3214FEAC520F40241EA555140EA3B
:1059400056506FF0020202EB2E4201EB025585EA3F
:10595000CE710AD05FEA440C18BF24F0004450F125
:10596000000041F1000120EAD47040F2FE7C624563
:1059700000D270BDA84214BF4FF080444FF04044A5
:10598000002E08BF0024BEF1806FA8BFA1F1C04166
:10599000BDE8704080F282804FF0000001F1C0410C
:1059A00001F0004170479EEA0C0F0CEA131518BF76
:1059B00095EA0C0F06D04FF0000081EA030E0EF0BE
:1059C000004170BD00F01CF88900013E00F007B8EE
:1059D00000F009B84FEA430C5FEA5C5C08D081EA4A
:1059E000030100F05BB84FEA410C5FEA5C5CF6D162
:1059F0004FF00000014970470000FF070000F87FEA
:105A00000EF1020E2EF0030E5EF8046B364205D442
:105A1000012A43EB030515F5001F12D8012841EBBD
:105A2000010C1CF5001F0CD80ED14FEAD17C15F5E6
:105A3000001F0CEB4C0C0CF1020C08BF4CEBD37CA0
:105A400004E04FF0080C01E04FEAD37C0CEB4C056E
:105A500026FA05F606F00706B6F1040C06D20EEBA0
:105A6000860CBDE870404CF0010C6047DFE80CF09C
:105A7000090B02024FF000414FF00000A1F5002198
:105A800070BD19461046012851EB010418BFD4F52A
:105A9000001484BF002001F0004170BD0808A0F58B
:105AA00000114FEA3101704753EA010C17D41CF57D
:105AB000801F58BFBCF5801F00F106808B4218BFC5
:105AC000704708BF8242704707D713F5801F58BF41
:105AD00011F5801F19D48B4270479B4270471CF50B
